{
  "address": "0xa3baEcf2f827A0647775F0Cf0497e19eb81c6DA5",
  "abi": [
    {
      "inputs": [],
      "name": "ReentrancyGuardReentrantCall",
      "type": "error"
    },
    {
      "inputs": [
        {
          "internalType": "address",
          "name": "token",
          "type": "address"
        }
      ],
      "name": "SafeERC20FailedOperation",
      "type": "error"
    },
    {
      "anonymous": false,
      "inputs": [
        {
          "indexed": true,
          "internalType": "address",
          "name": "sender",
          "type": "address"
        },
        {
          "indexed": false,
          "internalType": "uint256",
          "name": "totalTransactions",
          "type": "uint256"
        },
        {
          "indexed": false,
          "internalType": "uint256",
          "name": "totalVolume",
          "type": "uint256"
        }
      ],
      "name": "BatchPaymentCompleted",
      "type": "event"
    },
    {
      "anonymous": false,
      "inputs": [
        {
          "indexed": true,
          "internalType": "bytes32",
          "name": "functionId",
          "type": "bytes32"
        }
      ],
      "name": "FunctionComplianceDeactivated",
      "type": "event"
    },
    {
      "anonymous": false,
      "inputs": [
        {
          "indexed": true,
          "internalType": "bytes32",
          "name": "functionId",
          "type": "bytes32"
        }
      ],
      "name": "FunctionComplianceReactivated",
      "type": "event"
    },
    {
      "anonymous": false,
      "inputs": [
        {
          "indexed": true,
          "internalType": "bytes32",
          "name": "functionId",
          "type": "bytes32"
        },
        {
          "indexed": false,
          "internalType": "uint256[]",
          "name": "requiredClaimTopics",
          "type": "uint256[]"
        },
        {
          "indexed": false,
          "internalType": "string",
          "name": "description",
          "type": "string"
        }
      ],
      "name": "FunctionComplianceSet",
      "type": "event"
    },
    {
      "anonymous": false,
      "inputs": [
        {
          "indexed": true,
          "internalType": "address",
          "name": "sender",
          "type": "address"
        },
        {
          "indexed": true,
          "internalType": "address",
          "name": "recipient",
          "type": "address"
        },
        {
          "indexed": true,
          "internalType": "address",
          "name": "token",
          "type": "address"
        },
        {
          "indexed": false,
          "internalType": "uint256",
          "name": "originalAmount",
          "type": "uint256"
        },
        {
          "indexed": false,
          "internalType": "uint256",
          "name": "adjustedAmount",
          "type": "uint256"
        },
        {
          "indexed": false,
          "internalType": "address[]",
          "name": "feeReceivers",
          "type": "address[]"
        },
        {
          "indexed": false,
          "internalType": "uint256[]",
          "name": "feeAmounts",
          "type": "uint256[]"
        }
      ],
      "name": "RoutedPayment",
      "type": "event"
    },
    {
      "inputs": [],
      "name": "BATCH_ROUTE_PAYMENTS",
      "outputs": [
        {
          "internalType": "bytes32",
          "name": "",
          "type": "bytes32"
        }
      ],
      "stateMutability": "view",
      "type": "function"
    },
    {
      "inputs": [],
      "name": "MAX_BATCH_SIZE",
      "outputs": [
        {
          "internalType": "uint256",
          "name": "",
          "type": "uint256"
        }
      ],
      "stateMutability": "view",
      "type": "function"
    },
    {
      "inputs": [],
      "name": "MIN_FEE_THRESHOLD",
      "outputs": [
        {
          "internalType": "uint256",
          "name": "",
          "type": "uint256"
        }
      ],
      "stateMutability": "view",
      "type": "function"
    },
    {
      "inputs": [],
      "name": "ROUTE_PAYMENT_ANY_TOKEN",
      "outputs": [
        {
          "internalType": "bytes32",
          "name": "",
          "type": "bytes32"
        }
      ],
      "stateMutability": "view",
      "type": "function"
    },
    {
      "inputs": [],
      "name": "ROUTE_PAYMENT_BASIC",
      "outputs": [
        {
          "internalType": "bytes32",
          "name": "",
          "type": "bytes32"
        }
      ],
      "stateMutability": "view",
      "type": "function"
    },
    {
      "inputs": [],
      "name": "ROUTE_PAYMENT_TOKEN_ONLY",
      "outputs": [
        {
          "internalType": "bytes32",
          "name": "",
          "type": "bytes32"
        }
      ],
      "stateMutability": "view",
      "type": "function"
    },
    {
      "inputs": [
        {
          "internalType": "address[]",
          "name": "tokens",
          "type": "address[]"
        },
        {
          "internalType": "uint256[]",
          "name": "amounts",
          "type": "uint256[]"
        },
        {
          "internalType": "address[]",
          "name": "recipients",
          "type": "address[]"
        }
      ],
      "name": "batchRoutePayments",
      "outputs": [],
      "stateMutability": "nonpayable",
      "type": "function"
    },
    {
      "inputs": [
        {
          "internalType": "bytes32",
          "name": "functionId",
          "type": "bytes32"
        },
        {
          "internalType": "address",
          "name": "sender",
          "type": "address"
        },
        {
          "internalType": "address",
          "name": "recipient",
          "type": "address"
        }
      ],
      "name": "checkCompliance",
      "outputs": [
        {
          "internalType": "bool",
          "name": "isCompliant",
          "type": "bool"
        }
      ],
      "stateMutability": "view",
      "type": "function"
    },
    {
      "inputs": [
        {
          "internalType": "uint256",
          "name": "claimTopic",
          "type": "uint256"
        }
      ],
      "name": "claimTopicExists",
      "outputs": [
        {
          "internalType": "bool",
          "name": "exists",
          "type": "bool"
        }
      ],
      "stateMutability": "view",
      "type": "function"
    },
    {
      "inputs": [
        {
          "internalType": "bytes32",
          "name": "functionId",
          "type": "bytes32"
        }
      ],
      "name": "deactivateFunctionCompliance",
      "outputs": [],
      "stateMutability": "nonpayable",
      "type": "function"
    },
    {
      "inputs": [
        {
          "internalType": "address",
          "name": "token",
          "type": "address"
        },
        {
          "internalType": "uint256",
          "name": "amount",
          "type": "uint256"
        },
        {
          "internalType": "address",
          "name": "recipient",
          "type": "address"
        }
      ],
      "name": "emergencyTokenRecovery",
      "outputs": [],
      "stateMutability": "nonpayable",
      "type": "function"
    },
    {
      "inputs": [],
      "name": "getAvailableClaimTopics",
      "outputs": [
        {
          "internalType": "uint256[]",
          "name": "claimTopics",
          "type": "uint256[]"
        }
      ],
      "stateMutability": "view",
      "type": "function"
    },
    {
      "inputs": [
        {
          "internalType": "bytes32",
          "name": "functionId",
          "type": "bytes32"
        }
      ],
      "name": "getFunctionClaimRequirements",
      "outputs": [
        {
          "internalType": "uint256[]",
          "name": "requiredClaimTopics",
          "type": "uint256[]"
        },
        {
          "internalType": "bool",
          "name": "isActive",
          "type": "bool"
        },
        {
          "internalType": "string",
          "name": "description",
          "type": "string"
        }
      ],
      "stateMutability": "view",
      "type": "function"
    },
    {
      "inputs": [],
      "name": "getMaxBatchSize",
      "outputs": [
        {
          "internalType": "uint256",
          "name": "maxSize",
          "type": "uint256"
        }
      ],
      "stateMutability": "pure",
      "type": "function"
    },
    {
      "inputs": [],
      "name": "getMinFeeThreshold",
      "outputs": [
        {
          "internalType": "uint256",
          "name": "threshold",
          "type": "uint256"
        }
      ],
      "stateMutability": "pure",
      "type": "function"
    },
    {
      "inputs": [],
      "name": "getRoutingFunctionIds",
      "outputs": [
        {
          "internalType": "bytes32[]",
          "name": "functionIds",
          "type": "bytes32[]"
        }
      ],
      "stateMutability": "pure",
      "type": "function"
    },
    {
      "inputs": [],
      "name": "getSupportedTokensForRouting",
      "outputs": [
        {
          "internalType": "address[]",
          "name": "supportedTokens",
          "type": "address[]"
        }
      ],
      "stateMutability": "view",
      "type": "function"
    },
    {
      "inputs": [
        {
          "internalType": "address",
          "name": "token",
          "type": "address"
        }
      ],
      "name": "isTokenSupportedForRouting",
      "outputs": [
        {
          "internalType": "bool",
          "name": "isSupported",
          "type": "bool"
        }
      ],
      "stateMutability": "view",
      "type": "function"
    },
    {
      "inputs": [
        {
          "internalType": "bytes32",
          "name": "functionId",
          "type": "bytes32"
        }
      ],
      "name": "reactivateFunctionCompliance",
      "outputs": [],
      "stateMutability": "nonpayable",
      "type": "function"
    },
    {
      "inputs": [
        {
          "internalType": "address",
          "name": "token",
          "type": "address"
        },
        {
          "internalType": "uint256",
          "name": "amount",
          "type": "uint256"
        },
        {
          "internalType": "address",
          "name": "recipient",
          "type": "address"
        }
      ],
      "name": "routePaymentWithFees",
      "outputs": [],
      "stateMutability": "nonpayable",
      "type": "function"
    },
    {
      "inputs": [
        {
          "internalType": "address",
          "name": "token",
          "type": "address"
        },
        {
          "internalType": "uint256",
          "name": "amount",
          "type": "uint256"
        },
        {
          "internalType": "address",
          "name": "recipient",
          "type": "address"
        }
      ],
      "name": "routePaymentWithFeesAnyToken",
      "outputs": [],
      "stateMutability": "nonpayable",
      "type": "function"
    },
    {
      "inputs": [
        {
          "internalType": "address",
          "name": "token",
          "type": "address"
        },
        {
          "internalType": "uint256",
          "name": "amount",
          "type": "uint256"
        },
        {
          "internalType": "address",
          "name": "recipient",
          "type": "address"
        }
      ],
      "name": "routePaymentWithFeesTokenOnly",
      "outputs": [],
      "stateMutability": "nonpayable",
      "type": "function"
    },
    {
      "inputs": [
        {
          "internalType": "bytes32",
          "name": "functionId",
          "type": "bytes32"
        },
        {
          "internalType": "uint256[]",
          "name": "requiredClaimTopics",
          "type": "uint256[]"
        },
        {
          "internalType": "string",
          "name": "description",
          "type": "string"
        }
      ],
      "name": "setFunctionClaimRequirements",
      "outputs": [],
      "stateMutability": "nonpayable",
      "type": "function"
    }
  ],
  "transactionHash": "0xeb833466b30d25fe9e8b2bc11a11d65219b55f44360186acf24eec40ea29e766",
  "args": [],
  "numDeployments": 1,
  "solcInputHash": "0a3ac380e2ac6b3ecb36040bb468581c",
  "bytecode": "0x6080604052348015600f57600080fd5b506001600055613499806100246000396000f3fe608060405234801561001057600080fd5b506004361061011d5760003560e01c8063088fc8fe1461012257806324565ce714610137578063299e2e541461015f578063433d9da71461017257806350aaedb31461018757806370d8aae71461018e5780638e021e32146101a15780638ecdd933146101b6578063918b2625146101cb578063b2796498146101de578063b695f02e14610201578063c990f39b14610214578063cce41a4414610229578063ce148e3d1461023c578063cfdbf2541461024f578063d04a66a314610257578063d1a2edf61461026c578063e3453f0414610274578063e3ba876914610287578063e7c00f6e1461029a578063eb1c97eb146102a1578063f36154fc146102b4578063fc4eed8f146102d6575b600080fd5b6101356101303660046129da565b6102eb565b005b61014c6000805160206133c483398151915281565b6040519081526020015b60405180910390f35b61013561016d366004612a16565b610557565b61017a6106bd565b6040516101569190612a6b565b600161014c565b61013561019c3660046129da565b6106da565b6101a961087e565b6040516101569190612ab9565b61014c6000805160206133a483398151915281565b6101356101d93660046129da565b610a28565b6101f16101ec366004612acc565b610c9c565b6040519015158152602001610156565b6101f161020f366004612ae7565b610cff565b61014c60008051602061344483398151915281565b610135610237366004612b5e565b610da9565b61013561024a3660046129da565b610f8e565b61014c603281565b61014c60008051602061334483398151915281565b61014c600181565b610135610282366004612c08565b6110f4565b6101f1610295366004612a16565b61166a565b603261014c565b6101356102af366004612a16565b611681565b6102c76102c2366004612a16565b611773565b60405161015693929190612cab565b6102de611882565b6040516101569190612d15565b6102f3611960565b600080516020613344833981519152600081905260026020527f9ab001ec61640312d4b8a3e78d88932ab13addaeec2a0c5c749229acd54c0a5f54829060ff16801561034c575060008281526001602052604090205415155b156103e1576103bc33600160008581526020019081526020016000208054806020026020016040519081016040528092919081815260200182805480156103b257602002820191906000526020600020905b81548152602001906001019080831161039e575b505050505061198a565b6103e15760405162461bcd60e51b81526004016103d890612d58565b60405180910390fd5b6001600160a01b0385166104075760405162461bcd60e51b81526004016103d890612d99565b6001600160a01b03831661042d5760405162461bcd60e51b81526004016103d890612de4565b6000841161044d5760405162461bcd60e51b81526004016103d890612e2b565b6000610457611a17565b905060006104658288611a3b565b905080156104805761047b828888886000611a60565b610544565b600061048b83611ee4565b90506001600160a01b0381166104b35760405162461bcd60e51b81526004016103d890612e7a565b806001600160a01b0316886001600160a01b0316146105345760405162461bcd60e51b8152602060048201526043602482015260008051602061342483398151915260448201527f656420616e6420646f6573206e6f74206d61746368207072696d61727920746f60648201526235b2b760e91b608482015260a4016103d8565b610542838989896001611a60565b505b505050506105526001600055565b505050565b6000610561611a17565b905061056b611ef4565b600401546001600160a01b031633148061058a575061058a8133611f18565b6105a65760405162461bcd60e51b81526004016103d890612eb6565b60008281526002602052604090205460ff161561060d5760405162461bcd60e51b81526020600482015260316024820152600080516020613364833981519152604482015270636520616c72656164792061637469766560781b60648201526084016103d8565b6000828152600160205260409020546106795760405162461bcd60e51b815260206004820152602860248201527f5472616e7366657246616365743a204e6f20636c61696d20726571756972656d604482015267195b9d1cc81cd95d60c21b60648201526084016103d8565b600082815260026020526040808220805460ff191660011790555183917fcef46cd60d8d79418d4cbf8166e36c17dd01948ef3c9102382db6a821446cba791a25050565b606060006106c9611a17565b90506106d481611f3d565b91505090565b6106e2611960565b6000805160206133c4833981519152600081905260026020527f22a9336a0b31e9e0bb861274a3a343460060044b049548eddd288779338e27f454829060ff16801561073b575060008281526001602052604090205415155b156107c5576107a933600160008581526020019081526020016000208054806020026020016040519081016040528092919081815260200182805480156103b2576020028201919060005260206000209081548152602001906001019080831161039e57505050505061198a565b6107c55760405162461bcd60e51b81526004016103d890612d58565b6001600160a01b0385166107eb5760405162461bcd60e51b81526004016103d890612d99565b6001600160a01b0383166108115760405162461bcd60e51b81526004016103d890612de4565b600084116108315760405162461bcd60e51b81526004016103d890612e2b565b600061083b611a17565b90506108478187611a3b565b6108635760405162461bcd60e51b81526004016103d890612f00565b610871818787876000611a60565b5050506105526001600055565b6060600061088a611a17565b9050600061089782611f99565b905060006108a483611ee4565b905060006001600160a01b038216156109085760005b835181101561090657826001600160a01b03168482815181106108df576108df612f30565b60200260200101516001600160a01b0316036108fe5760019150610906565b6001016108ba565b505b82516001600160a01b03831615801590610920575081155b1561093357610930600182612f5c565b90505b806001600160401b0381111561094b5761094b612f6f565b604051908082528060200260200182016040528015610974578160200160208202803683370190505b50955060005b84518110156109cf5784818151811061099557610995612f30565b60200260200101518782815181106109af576109af612f30565b6001600160a01b039092166020928302919091019091015260010161097a565b506001600160a01b038316158015906109e6575081155b15610a205782868551815181106109ff576109ff612f30565b60200260200101906001600160a01b031690816001600160a01b0316815250505b505050505090565b610a30611960565b600080516020613444833981519152600081905260026020527f43baf5639ae2353ccb6c747c3b9ae8a03877694cfb224616f7404108a9e2e5df54829060ff168015610a89575060008281526001602052604090205415155b15610b1357610af733600160008581526020019081526020016000208054806020026020016040519081016040528092919081815260200182805480156103b2576020028201919060005260206000209081548152602001906001019080831161039e57505050505061198a565b610b135760405162461bcd60e51b81526004016103d890612d58565b6001600160a01b038516610b395760405162461bcd60e51b81526004016103d890612d99565b6001600160a01b038316610b5f5760405162461bcd60e51b81526004016103d890612de4565b60008411610b7f5760405162461bcd60e51b81526004016103d890612e2b565b6000610b89611a17565b90506000610b9682611ee4565b90506001600160a01b038116610bfd5760405162461bcd60e51b8152602060048201526038602482015260008051602061340483398151915260448201527706f7420696e697469616c697a656420666f722045524332360441b60648201526084016103d8565b806001600160a01b0316876001600160a01b031614610c8e5760405162461bcd60e51b815260206004820152604160248201527f5472616e7366657246616365743a20546f6b656e20646f6573206e6f74206d6160448201527f74636820636f6e6669677572656420646973747269627574696f6e20746f6b656064820152603760f91b608482015260a4016103d8565b610544828888886001611a60565b600080610ca7611a17565b9050610cb38184611a3b565b15610cc15750600192915050565b6000610ccc82611ee4565b90506001600160a01b03811615801590610cf75750806001600160a01b0316846001600160a01b0316145b949350505050565b60008381526002602052604081205460ff161580610d295750600084815260016020526040902054155b15610d3657506001610da2565b610d9f83600160008781526020019081526020016000208054806020026020016040519081016040528092919081815260200182805480156103b2576020028201919060005260206000209081548152602001906001019080831161039e57505050505061198a565b90505b9392505050565b6000610db3611a17565b9050610dbd611ef4565b600401546001600160a01b0316331480610ddc5750610ddc8133611f18565b610df85760405162461bcd60e51b81526004016103d890612eb6565b83610e5e5760405162461bcd60e51b815260206004820152603060248201527f5472616e7366657246616365743a204174206c65617374206f6e6520636c616960448201526f1b481d1bdc1a58c81c995c5d5a5c995960821b60648201526084016103d8565b6000610e68611a17565b905060005b85811015610efd57610e9782888884818110610e8b57610e8b612f30565b90506020020135612131565b610ef55760405162461bcd60e51b815260206004820152602960248201527f5472616e7366657246616365743a20436c61696d20746f70696320646f6573206044820152681b9bdd08195e1a5cdd60ba1b60648201526084016103d8565b600101610e6d565b506000878152600160205260409020610f1790878761295e565b506000878152600260209081526040808320805460ff1916600117905560039091529020610f4684868361300d565b50867fba835494bc4de281f2c2f7165a007b9b26bd2fb0e6f7774428a9a5bd8bdbae2987878787604051610f7d94939291906130cc565b60405180910390a250505050505050565b33610f9761214a565b6001600160a01b03161480610fab57503033145b610ff75760405162461bcd60e51b815260206004820152601f60248201527f6e6f7420617574686f72697a656420746f2063616c6c2066756e6374696f6e0060448201526064016103d8565b6001600160a01b0383166110595760405162461bcd60e51b8152602060048201526024808201527f5472616e7366657246616365743a20496e76616c696420746f6b656e206164646044820152637265737360e01b60648201526084016103d8565b6001600160a01b0381166110c05760405162461bcd60e51b815260206004820152602860248201527f5472616e7366657246616365743a20496e76616c696420726563697069656e74604482015267206164647265737360c01b60648201526084016103d8565b600082116110e05760405162461bcd60e51b81526004016103d890612e2b565b6105526001600160a01b0384168284612166565b6110fc611960565b84831461111b5760405162461bcd60e51b81526004016103d890613135565b84811461113a5760405162461bcd60e51b81526004016103d890613135565b846111855760405162461bcd60e51b815260206004820152601b60248201527a5472616e7366657246616365743a20456d7074792061727261797360281b60448201526064016103d8565b60328511156111f05760405162461bcd60e51b815260206004820152603160248201527f5472616e7366657246616365743a2042617463682073697a65206578636565646044820152701cc81b585e1a5b5d5b48185b1b1bddd959607a1b60648201526084016103d8565b6000805160206133a483398151915260005260026020527ffda4c0bffe2be913a32e7d37f4897ed9f832a8cbdd189aff78fadb83f620de205460ff16801561125d57506000805160206133a483398151915260005260016020526000805160206133848339815191525415155b1561134e576000805160206133a483398151915260005260016020908152600080516020613384833981519152805460408051828502810185019091528181526112dd9333939192908301828280156103b2576020028201919060005260206000209081548152602001906001019080831161039e57505050505061198a565b61134e5760405162461bcd60e51b815260206004820152604860248201526000805160206133e483398151915260448201527f71756972656420636c61696d20746f7069637320666f72206261746368206f7060648201526765726174696f6e7360c01b608482015260a4016103d8565b6000611358611a17565b90506000805b8781101561161a57600089898381811061137a5761137a612f30565b905060200201602081019061138f9190612acc565b6001600160a01b0316036113b55760405162461bcd60e51b81526004016103d890612d99565b60008585838181106113c9576113c9612f30565b90506020020160208101906113de9190612acc565b6001600160a01b0316036114045760405162461bcd60e51b81526004016103d890612de4565b600087878381811061141857611418612f30565b905060200201351161143c5760405162461bcd60e51b81526004016103d890612e2b565b86868281811061144e5761144e612f30565b90506020020135826114609190612f5c565b91506000611494848b8b8581811061147a5761147a612f30565b905060200201602081019061148f9190612acc565b611a3b565b905080156115135761150e848b8b858181106114b2576114b2612f30565b90506020020160208101906114c79190612acc565b8a8a868181106114d9576114d9612f30565b905060200201358989878181106114f2576114f2612f30565b90506020020160208101906115079190612acc565b6000611a60565b611611565b600061151e85611ee4565b90506001600160a01b0381166115465760405162461bcd60e51b81526004016103d890612e7a565b806001600160a01b03168b8b8581811061156257611562612f30565b90506020020160208101906115779190612acc565b6001600160a01b03161461159d5760405162461bcd60e51b81526004016103d890612f00565b61160f858c8c868181106115b3576115b3612f30565b90506020020160208101906115c89190612acc565b8b8b878181106115da576115da612f30565b905060200201358a8a888181106115f3576115f3612f30565b90506020020160208101906116089190612acc565b6001611a60565b505b5060010161135e565b50604080518881526020810183905233917f82f97f1ea9313a56660c2758ef1fc868c162dc4dcdd27e4650f0b9379c4db797910160405180910390a250506116626001600055565b505050505050565b600080611675611a17565b9050610da28184612131565b600061168b611a17565b9050611695611ef4565b600401546001600160a01b03163314806116b457506116b48133611f18565b6116d05760405162461bcd60e51b81526004016103d890612eb6565b60008281526002602052604090205460ff166117325760405162461bcd60e51b815260206004820152602d602482015260008051602061336483398151915260448201526c6365206e6f742061637469766560981b60648201526084016103d8565b600082815260026020526040808220805460ff191690555183917f615a571af7e8b21c35bdc993b06c926a1189bbe957f0a364c548804fe9b856b691a25050565b6000818152600160209081526040808320600283528184205460038452828520825484518187028101870190955280855260609695879560ff909416939185918301828280156117e257602002820191906000526020600020905b8154815260200190600101908083116117ce575b505050505092508080546117f590612f85565b80601f016020809104026020016040519081016040528092919081815260200182805461182190612f85565b801561186e5780601f106118435761010080835404028352916020019161186e565b820191906000526020600020905b81548152906001019060200180831161185157829003601f168201915b505050505090509250925092509193909250565b60408051600480825260a0820190925260609160208201608080368337019050509050600080516020613444833981519152816000815181106118c7576118c7612f30565b602002602001018181525050600080516020613344833981519152816001815181106118f5576118f5612f30565b6020026020010181815250506000805160206133c48339815191528160028151811061192357611923612f30565b6020026020010181815250506000805160206133a48339815191528160038151811061195157611951612f30565b60200260200101818152505090565b60026000540361198357604051633ee5aeb560e01b815260040160405180910390fd5b6002600055565b600080611995611a17565b6001600160a01b038086166000908152601383016020526040902054919250166119c3576000915050611a11565b60005b8351811015611a0a576119f382868684815181106119e6576119e6612f30565b60200260200101516121c5565b611a0257600092505050611a11565b6001016119c6565b5060019150505b92915050565b7fbd516eb36b5d4489adb2e717e7d0ce56c1b814eda85e78ad9d8f240b24dd830d90565b6001600160a01b03166000908152603c91909101602052604090206002015460ff1690565b6040516370a0823160e01b815284906000906001600160a01b038316906370a0823190611a91903090600401613179565b602060405180830381865afa158015611aae573d6000803e3d6000fd5b505050506040513d601f19601f82011682018060405250810190611ad2919061318d565b9050611ae96001600160a01b038316333088612257565b6040516370a0823160e01b81526000906001600160a01b038416906370a0823190611b18903090600401613179565b602060405180830381865afa158015611b35573d6000803e3d6000fd5b505050506040513d601f19601f82011682018060405250810190611b59919061318d565b9050611b658683612f5c565b811015611bc85760405162461bcd60e51b815260206004820152602b60248201527f5472616e7366657246616365743a205472616e7366657220766572696669636160448201526a1d1a5bdb8819985a5b195960aa1b60648201526084016103d8565b60006060808615611bf357611bdd8b8a612296565b9093509150611beb8b6124f5565b509050611c11565b611bfe8b8b8b6125de565b9093509150611c0d8b8b6127c5565b5090505b8151815114611c6e5760405162461bcd60e51b8152602060048201526024808201527f5472616e7366657246616365743a20466565207265636569766572206d69736d6044820152630c2e8c6d60e31b60648201526084016103d8565b6000805b8251811015611d8a576000848281518110611c8f57611c8f612f30565b60200260200101511115611d82576001848281518110611cb157611cb1612f30565b602002602001015110611d3a57611d0e838281518110611cd357611cd3612f30565b6020026020010151858381518110611ced57611ced612f30565b60200260200101518a6001600160a01b03166121669092919063ffffffff16565b838181518110611d2057611d20612f30565b602002602001015182611d339190612f5c565b9150611d82565b838181518110611d4c57611d4c612f30565b602002602001015185611d5f9190612f5c565b94506000848281518110611d7557611d75612f30565b6020026020010181815250505b600101611c72565b508315611da557611da56001600160a01b0388168a86612166565b6040516370a0823160e01b81526000906001600160a01b038916906370a0823190611dd4903090600401613179565b602060405180830381865afa158015611df1573d6000803e3d6000fd5b505050506040513d601f19601f82011682018060405250810190611e15919061318d565b905086811115611e7a5760405162461bcd60e51b815260206004820152602a60248201527f5472616e7366657246616365743a2046756e6473206e6f742066756c6c7920646044820152691a5cdd1c9a589d5d195960b21b60648201526084016103d8565b8b6001600160a01b03168a6001600160a01b0316336001600160a01b03167fa2399c32ee3d1319a0ba892e5107ac05f419539a57f122a1f72effe9dadab6598e89888a604051611ecd94939291906131a6565b60405180910390a450505050505050505050505050565b603b01546001600160a01b031690565b7fc8fcad8db84d3cc18b4c41d551ea0ee66dd599cde068d998e57d5e09332c131c90565b6001600160a01b038181166000908152600d8401602052604090205416151592915050565b606081601201805480602002602001604051908101604052809291908181526020018280548015611f8d57602002820191906000526020600020905b815481526020019060010190808311611f79575b50505050509050919050565b603d8101546060906038830190600090815b8181101561201457836004016000856005018381548110611fce57611fce612f30565b60009182526020808320909101546001600160a01b0316835282019290925260400190206002015460ff161561200c5782612008816131e2565b9350505b600101611fab565b506000826001600160401b0381111561202f5761202f612f6f565b604051908082528060200260200182016040528015612058578160200160208202803683370190505b5090506000805b838110156121255785600401600087600501838154811061208257612082612f30565b60009182526020808320909101546001600160a01b0316835282019290925260400190206002015460ff161561211d578560050181815481106120c7576120c7612f30565b9060005260206000200160009054906101000a90046001600160a01b03168383815181106120f7576120f7612f30565b6001600160a01b039092166020928302919091019091015281612119816131e2565b9250505b60010161205f565b50909695505050505050565b6000908152601191909101602052604090205460ff1690565b6000612154611ef4565b600401546001600160a01b0316919050565b6040516001600160a01b0383811660248301526044820183905261055291859182169063a9059cbb906064015b604051602081830303815290604052915060e01b6020820180516001600160e01b0383818316178352505050506128cc565b6000806121d28585612934565b905060005b6001600160a01b038216600090815260178701602052604090205481101561224b576001600160a01b0382166000908152601787016020526040902080548591908390811061222857612228612f30565b90600052602060002001540361224357600192505050610da2565b6001016121d7565b50600095945050505050565b6040516001600160a01b0384811660248301528381166044830152606482018390526122909186918216906323b872dd90608401612193565b50505050565b603e820154600090606090603885019060ff166122c55760405162461bcd60e51b81526004016103d8906131fb565b60008160000180548060200260200160405190810160405280929190818152602001828054801561231f57602002820191906000526020600020905b81546001600160a01b03168152600190910190602001808311612301575b505050505090506000815190508060000361235157505060408051600081526020810190915284935091506124ee9050565b60008360020154116123755760405162461bcd60e51b81526004016103d890613232565b6000836001018054806020026020016040519081016040528092919081815260200182805480156123c557602002820191906000526020600020905b8154815260200190600101908083116123b1575b50505050509050816001600160401b038111156123e4576123e4612f6f565b60405190808252806020026020018201604052801561240d578160200160208202803683370190505b50945060008060005b848110156124af576000876002015485838151811061243757612437612f30565b60200260200101518c61244a9190613269565b6124549190613280565b90506000811180156124665750600181105b1561247c576124758184612f5c565b9250600090505b8089838151811061248f5761248f612f30565b60209081029190910101526124a48185612f5c565b935050600101612416565b50888211156124d05760405162461bcd60e51b81526004016103d8906132a2565b806124db838b6132ed565b6124e59190612f5c565b97505050505050505b9250929050565b603e8101546060908190603884019060ff166125235760405162461bcd60e51b81526004016103d8906131fb565b8054604080516020808402820181019092528281528392600184019284919083018282801561257b57602002820191906000526020600020905b81546001600160a01b0316815260019091019060200180831161255d575b50505050509150808054806020026020016040519081016040528092919081815260200182805480156125cd57602002820191906000526020600020905b8154815260200190600101908083116125b9575b505050505090509250925050915091565b6001600160a01b0382166000908152603c8401602052604081206002810154606091603887019160ff166126245760405162461bcd60e51b81526004016103d890613300565b600682015460ff166126485760405162461bcd60e51b81526004016103d8906131fb565b8054600081900361267057505060408051600081526020810190915284935091506127bd9050565b806001600160401b0381111561268857612688612f6f565b6040519080825280602002602001820160405280156126b1578160200160208202803683370190505b509350600080600085600201549050600081116126e05760405162461bcd60e51b81526004016103d890613232565b60005b8481101561277e5760008287600101838154811061270357612703612f30565b90600052602060002001548c6127199190613269565b6127239190613280565b90506000811180156127355750600181105b1561274b576127448185612f5c565b9350600090505b8089838151811061275e5761275e612f30565b60209081029190910101526127738186612f5c565b9450506001016126e3565b508883111561279f5760405162461bcd60e51b81526004016103d8906132a2565b816127aa848b6132ed565b6127b49190612f5c565b97505050505050505b935093915050565b6001600160a01b0381166000908152603c8301602052604090206002810154606091829160388601919060ff1661280e5760405162461bcd60e51b81526004016103d890613300565b8054604080516020808402820181019092528281528392600184019284919083018282801561286657602002820191906000526020600020905b81546001600160a01b03168152600190910190602001808311612848575b50505050509150808054806020026020016040519081016040528092919081815260200182805480156128b857602002820191906000526020600020905b8154815260200190600101908083116128a4575b505050505090509350935050509250929050565b600080602060008451602086016000885af1806128ef576040513d6000823e3d81fd5b50506000513d91508115612907578060011415612914565b6001600160a01b0384163b155b156122905783604051635274afe760e01b81526004016103d89190613179565b6001600160a01b03818116600090815260138401602052604081205490911680610da25782610cf7565b828054828255906000526020600020908101928215612999579160200282015b8281111561299957823582559160200191906001019061297e565b506129a59291506129a9565b5090565b5b808211156129a557600081556001016129aa565b80356001600160a01b03811681146129d557600080fd5b919050565b6000806000606084860312156129ef57600080fd5b6129f8846129be565b925060208401359150612a0d604085016129be565b90509250925092565b600060208284031215612a2857600080fd5b5035919050565b600081518084526020840193506020830160005b82811015612a61578151865260209586019590910190600101612a43565b5093949350505050565b602081526000610da26020830184612a2f565b600081518084526020840193506020830160005b82811015612a615781516001600160a01b0316865260209586019590910190600101612a92565b602081526000610da26020830184612a7e565b600060208284031215612ade57600080fd5b610da2826129be565b600080600060608486031215612afc57600080fd5b83359250612b0c602085016129be565b9150612a0d604085016129be565b60008083601f840112612b2c57600080fd5b5081356001600160401b03811115612b4357600080fd5b6020830191508360208260051b85010111156124ee57600080fd5b600080600080600060608688031215612b7657600080fd5b8535945060208601356001600160401b03811115612b9357600080fd5b612b9f88828901612b1a565b90955093505060408601356001600160401b03811115612bbe57600080fd5b8601601f81018813612bcf57600080fd5b80356001600160401b03811115612be557600080fd5b886020828401011115612bf757600080fd5b959894975092955050506020019190565b60008060008060008060608789031215612c2157600080fd5b86356001600160401b03811115612c3757600080fd5b612c4389828a01612b1a565b90975095505060208701356001600160401b03811115612c6257600080fd5b612c6e89828a01612b1a565b90955093505060408701356001600160401b03811115612c8d57600080fd5b612c9989828a01612b1a565b979a9699509497509295939492505050565b606081526000612cbe6060830186612a2f565b84151560208401528281036040840152835180825260005b81811015612cf257602081870181015184830182015201612cd6565b506000602082840101526020601f19601f83011683010192505050949350505050565b602080825282518282018190526000918401906040840190835b81811015612d4d578351835260209384019390920191600101612d2f565b509095945050505050565b60208082526033908201526000805160206133e483398151915260408201527271756972656420636c61696d20746f7069637360681b606082015260800190565b6020808252602b908201527f5472616e7366657246616365743a20546f6b656e20616464726573732063616e60408201526a6e6f74206265207a65726f60a81b606082015260800190565b60208082526027908201527f5472616e7366657246616365743a20526563697069656e742063616e6e6f74206040820152666265207a65726f60c81b606082015260800190565b6020808252602f908201527f5472616e7366657246616365743a20416d6f756e74206d75737420626520677260408201526e6561746572207468616e207a65726f60881b606082015260800190565b6020808252602e9082015260008051602061340483398151915260408201526d1bdd081a5b9a5d1a585b1a5e995960921b606082015260800190565b6020808252602a908201527f5472616e7366657246616365743a204e6f74206f776e6572206f7220747275736040820152693a32b21034b9b9bab2b960b11b606082015260800190565b6020808252602290820152600080516020613424833981519152604082015261195960f21b606082015260800190565b634e487b7160e01b600052603260045260246000fd5b634e487b7160e01b600052601160045260246000fd5b80820180821115611a1157611a11612f46565b634e487b7160e01b600052604160045260246000fd5b600181811c90821680612f9957607f821691505b602082108103612fb957634e487b7160e01b600052602260045260246000fd5b50919050565b601f82111561055257806000526020600020601f840160051c81016020851015612fe65750805b601f840160051c820191505b818110156130065760008155600101612ff2565b5050505050565b6001600160401b0383111561302457613024612f6f565b613038836130328354612f85565b83612fbf565b6000601f84116001811461306c57600085156130545750838201355b600019600387901b1c1916600186901b178355613006565b600083815260209020601f19861690835b8281101561309d578685013582556020948501946001909201910161307d565b50868210156130ba5760001960f88860031b161c19848701351681555b505060018560011b0183555050505050565b6040808252810184905260006001600160fb1b038511156130ec57600080fd5b8460051b8087606085013782018281036060908101602085015281018490528385608083013760006080828601810191909152601f909401601f19160190920195945050505050565b60208082526024908201527f5472616e7366657246616365743a204172726179206c656e677468206d69736d6040820152630c2e8c6d60e31b606082015260800190565b6001600160a01b0391909116815260200190565b60006020828403121561319f57600080fd5b5051919050565b8481528360208201526080604082015260006131c56080830185612a7e565b82810360608401526131d78185612a2f565b979650505050505050565b6000600182016131f4576131f4612f46565b5060010190565b6020808252601f908201527f4665654469737472696275746f723a204e6f7420696e697469616c697a656400604082015260600190565b6020808252601d908201527f4665654469737472696275746f723a20496e76616c6964206261736973000000604082015260600190565b8082028115828204841417611a1157611a11612f46565b60008261329d57634e487b7160e01b600052601260045260246000fd5b500490565b6020808252602b908201527f4665654469737472696275746f723a20546f74616c206665657320657863656560408201526a19081c1c9a5b98da5c185b60aa1b606082015260800190565b81810381811115611a1157611a11612f46565b60208082526023908201527f4665654469737472696275746f723a20546f6b656e206e6f7420737570706f726040820152621d195960ea1b60608201526080019056fedc9a310970312b5ae678625da723042d4b6f844cf167290e32e47f54d99b5cf75472616e7366657246616365743a2046756e6374696f6e20636f6d706c69616e6846ab596f8cb74a4f22c12a4579e2367d38fa2849e2c6056273e0bbec115224b83c722c6e960c9803bd852028653e3e5fd353188822dcd60dd297a70bba23462ee9eb1e5476c70b8c34f7e5a3a308c37fb470fc44d5a1cd4a7bc5c9320ab4855472616e7366657246616365743a2053656e646572206d697373696e672072655472616e7366657246616365743a20466565206469737472696275746f72206e5472616e7366657246616365743a20546f6b656e206e6f7420737570706f7274881751b27f9d7aaf60a72e91e99297eb73c844da7f3b534a1025a0dd9af1ac74a2646970667358221220e1249656d12b404b94fad0b8ea03f4dfe104221054b6ab51c5a1cf9a5c6c4d6664736f6c634300081c0033",
  "libraries": {
    "AddressSet": "0x627a9DF457040FD767890BDbcB39a4e2069C1572",
    "AttributeLib": "0x9a60C1114c0aa705630b05130e7616779C9Cde76",
    "Base64": "0x0d3eb70650d6941F93fc3B8CCa52101ECAB362d7",
    "Bytes32Set": "0xe98E0Cc7e53670CBfefb2C4d54Af01D948c4b1d9",
    "CarbonCreditLib": "0x2197BEdA43555dAC0acB2f0DC1f1c11e745EbdeE",
    "DiamondFactoryLib": "0xEB645d5A9584D5EFe5F4eB4F1702229FEff773d5",
    "DiamondLib": "0x8EA40c57d009B392Be8896a9cbbb651d3ACdcb33",
    "ERC721AEnumerationLib": "0x2fCc5D85D15cf7Cd6a6546C93eF93C23Fe747336",
    "ERC721ALib": "0xBC05A6667d0479Fb73c8684345D494Ab04c90f1e",
    "Identity": "0xfebFb3eF3DA88fE279763b07E2721e87A80eafE6",
    "IdentityFactory": "0x97616A3E85da21A9986cd56E29636D690c298214",
    "IdentitySystemStorage": "0x5b2c024ac99EEAe9974151f2d3C6cE258eF566EA",
    "LibDiamond": "0xdF512a18E92BD861b3cf8CCE7aa3E199072CeCA3",
    "MerkleProver": "0x874d6f5c04901F94F846d7c5e40Aa961C66e34f1",
    "MetadataLib": "0xb9c9c1449BC8cDc59e9D4580105823252a68f288",
    "MultiSaleLib": "0xc56bbd1A2586B0A6465A414a73bd9cc86916c50F",
    "Strings": "0x3b68b67eC02CDbF26Bcc23Da8Ca942828858A39E",
    "StringsLib": "0xB112BE7820b66325BFCb0D47e69fa054De26D5c9",
    "SVGTemplatesLib": "0x3184902C8A7716c288b850D0Bd114D089e0D4995",
    "UInt256Set": "0x90106Ca53caa73e048645f66Ad978f43b9008513",
    "VariablePriceLib": "0xcBd8A638764995De1623e88c9E2566f0b352c458"
  },
  "devdoc": {
    "details": "A Diamond facet for routing payments with fee distribution, security protections, and compliance rules.",
    "errors": {
      "ReentrancyGuardReentrantCall()": [
        {
          "details": "Unauthorized reentrant call."
        }
      ],
      "SafeERC20FailedOperation(address)": [
        {
          "details": "An operation with an ERC-20 token failed."
        }
      ]
    },
    "kind": "dev",
    "methods": {
      "batchRoutePayments(address[],uint256[],address[])": {
        "details": "All tokens must be supported or match primary token. Protected against DOS attacks.",
        "params": {
          "amounts": "Array of amounts corresponding to each token.",
          "recipients": "Array of recipients corresponding to each token.",
          "tokens": "Array of token addresses."
        }
      },
      "checkCompliance(bytes32,address,address)": {
        "params": {
          "functionId": "The routing function identifier",
          "recipient": "Address of the recipient (kept for interface compatibility, not used in compliance check)",
          "sender": "Address of the sender"
        },
        "returns": {
          "isCompliant": "Whether the sender satisfies claim topic requirements"
        }
      },
      "claimTopicExists(uint256)": {
        "params": {
          "claimTopic": "The claim topic to check"
        },
        "returns": {
          "exists": "Whether the claim topic is registered"
        }
      },
      "deactivateFunctionCompliance(bytes32)": {
        "details": "Can be called by owner or trusted issuers",
        "params": {
          "functionId": "The identifier of the routing function"
        }
      },
      "emergencyTokenRecovery(address,uint256,address)": {
        "details": "Should only be used if tokens get stuck due to failed transfers.",
        "params": {
          "amount": "Amount to recover.",
          "recipient": "Address to send recovered tokens to.",
          "token": "Address of the token to recover."
        }
      },
      "getAvailableClaimTopics()": {
        "returns": {
          "claimTopics": "Array of all registered claim topics"
        }
      },
      "getFunctionClaimRequirements(bytes32)": {
        "params": {
          "functionId": "The identifier of the routing function"
        },
        "returns": {
          "description": "Description of the compliance requirement",
          "isActive": "Whether the compliance requirement is active",
          "requiredClaimTopics": "Array of required claim topics"
        }
      },
      "getMaxBatchSize()": {
        "returns": {
          "maxSize": "The maximum number of transactions allowed in a single batch."
        }
      },
      "getMinFeeThreshold()": {
        "returns": {
          "threshold": "The minimum fee threshold in basis points."
        }
      },
      "getRoutingFunctionIds()": {
        "returns": {
          "functionIds": "Array of all routing function identifiers"
        }
      },
      "getSupportedTokensForRouting()": {
        "returns": {
          "supportedTokens": "Array of supported token addresses."
        }
      },
      "isTokenSupportedForRouting(address)": {
        "params": {
          "token": "Address of the token to check."
        },
        "returns": {
          "isSupported": "True if token is supported (either as primary or has specific config)."
        }
      },
      "reactivateFunctionCompliance(bytes32)": {
        "details": "Can be called by owner or trusted issuers",
        "params": {
          "functionId": "The identifier of the routing function"
        }
      },
      "routePaymentWithFees(address,uint256,address)": {
        "details": "Uses the primary token configuration (backwards compatible).",
        "params": {
          "amount": "Amount of tokens to route.",
          "recipient": "Final recipient of the adjusted amount.",
          "token": "Address of ERC20 token being transferred."
        }
      },
      "routePaymentWithFeesAnyToken(address,uint256,address)": {
        "details": "Uses token-specific configuration if available, falls back to primary token.",
        "params": {
          "amount": "Amount of tokens to route.",
          "recipient": "Final recipient of the adjusted amount.",
          "token": "Address of ERC20 token being transferred."
        }
      },
      "routePaymentWithFeesTokenOnly(address,uint256,address)": {
        "details": "Automatically detects if token is supported, no fallback to primary token.",
        "params": {
          "amount": "Amount of tokens to route.",
          "recipient": "Final recipient of the adjusted amount.",
          "token": "Address of ERC20 token being transferred."
        }
      },
      "setFunctionClaimRequirements(bytes32,uint256[],string)": {
        "details": "Can be called by owner or trusted issuers. Uses centralized claim topics.",
        "params": {
          "description": "Human-readable description of the compliance requirement",
          "functionId": "The identifier of the routing function",
          "requiredClaimTopics": "Array of claim topics required for this function"
        }
      }
    },
    "title": "TransferFacet",
    "version": 1
  },
  "userdoc": {
    "kind": "user",
    "methods": {
      "MAX_BATCH_SIZE()": {
        "notice": "Maximum number of transactions allowed in batch operations to prevent DOS attacks"
      },
      "MIN_FEE_THRESHOLD()": {
        "notice": "Minimum fee threshold to prevent dust accumulation (0.0001% in basis points)"
      },
      "batchRoutePayments(address[],uint256[],address[])": {
        "notice": "Batch route payments for multiple tokens."
      },
      "checkCompliance(bytes32,address,address)": {
        "notice": "Checks if claim topic requirements are satisfied for a given sender"
      },
      "claimTopicExists(uint256)": {
        "notice": "Checks if a claim topic exists in the centralized registry"
      },
      "deactivateFunctionCompliance(bytes32)": {
        "notice": "Deactivates claim topic requirements for a specific routing function"
      },
      "emergencyTokenRecovery(address,uint256,address)": {
        "notice": "Emergency function to recover stuck tokens (only owner)."
      },
      "getAvailableClaimTopics()": {
        "notice": "Gets all available claim topics from the centralized registry"
      },
      "getFunctionClaimRequirements(bytes32)": {
        "notice": "Gets claim topic requirements for a specific routing function"
      },
      "getMaxBatchSize()": {
        "notice": "Gets the maximum batch size allowed for batch operations."
      },
      "getMinFeeThreshold()": {
        "notice": "Gets the minimum fee threshold used to prevent dust."
      },
      "getRoutingFunctionIds()": {
        "notice": "Gets all available routing function identifiers"
      },
      "getSupportedTokensForRouting()": {
        "notice": "Gets all tokens supported for routing."
      },
      "isTokenSupportedForRouting(address)": {
        "notice": "Checks if a token is supported for routing."
      },
      "reactivateFunctionCompliance(bytes32)": {
        "notice": "Reactivates claim topic requirements for a specific routing function"
      },
      "routePaymentWithFees(address,uint256,address)": {
        "notice": "Routes ERC20 payment from sender to recipient, applying fee distribution."
      },
      "routePaymentWithFeesAnyToken(address,uint256,address)": {
        "notice": "Routes any supported ERC20 token payment with fee distribution."
      },
      "routePaymentWithFeesTokenOnly(address,uint256,address)": {
        "notice": "Routes payment for any token that has fee configuration."
      },
      "setFunctionClaimRequirements(bytes32,uint256[],string)": {
        "notice": "Sets claim topic requirements for a specific routing function"
      }
    },
    "version": 1
  },
  "storageLayout": {
    "storage": [
      {
        "astId": 4431,
        "contract": "contracts/facets/TransferFacet.sol:TransferFacet",
        "label": "_status",
        "offset": 0,
        "slot": "0",
        "type": "t_uint256"
      },
      {
        "astId": 16958,
        "contract": "contracts/facets/TransferFacet.sol:TransferFacet",
        "label": "functionClaimRequirements",
        "offset": 0,
        "slot": "1",
        "type": "t_mapping(t_bytes32,t_array(t_uint256)dyn_storage)"
      },
      {
        "astId": 16962,
        "contract": "contracts/facets/TransferFacet.sol:TransferFacet",
        "label": "functionComplianceActive",
        "offset": 0,
        "slot": "2",
        "type": "t_mapping(t_bytes32,t_bool)"
      },
      {
        "astId": 16966,
        "contract": "contracts/facets/TransferFacet.sol:TransferFacet",
        "label": "functionComplianceDescriptions",
        "offset": 0,
        "slot": "3",
        "type": "t_mapping(t_bytes32,t_string_storage)"
      }
    ],
    "types": {
      "t_array(t_uint256)dyn_storage": {
        "base": "t_uint256",
        "encoding": "dynamic_array",
        "label": "uint256[]",
        "numberOfBytes": "32"
      },
      "t_bool": {
        "encoding": "inplace",
        "label": "bool",
        "numberOfBytes": "1"
      },
      "t_bytes32": {
        "encoding": "inplace",
        "label": "bytes32",
        "numberOfBytes": "32"
      },
      "t_mapping(t_bytes32,t_array(t_uint256)dyn_storage)": {
        "encoding": "mapping",
        "key": "t_bytes32",
        "label": "mapping(bytes32 => uint256[])",
        "numberOfBytes": "32",
        "value": "t_array(t_uint256)dyn_storage"
      },
      "t_mapping(t_bytes32,t_bool)": {
        "encoding": "mapping",
        "key": "t_bytes32",
        "label": "mapping(bytes32 => bool)",
        "numberOfBytes": "32",
        "value": "t_bool"
      },
      "t_mapping(t_bytes32,t_string_storage)": {
        "encoding": "mapping",
        "key": "t_bytes32",
        "label": "mapping(bytes32 => string)",
        "numberOfBytes": "32",
        "value": "t_string_storage"
      },
      "t_string_storage": {
        "encoding": "bytes",
        "label": "string",
        "numberOfBytes": "32"
      },
      "t_uint256": {
        "encoding": "inplace",
        "label": "uint256",
        "numberOfBytes": "32"
      }
    }
  }
}